{
  "_format": "hh-sol-artifact-1",
  "contractName": "Factory",
  "sourceName": "contracts/Factory.sol",
  "abi": [
    {
      "inputs": [
        {
          "internalType": "address",
          "name": "_token",
          "type": "address"
        }
      ],
      "name": "createExchange",
      "outputs": [
        {
          "internalType": "address",
          "name": "",
          "type": "address"
        }
      ],
      "stateMutability": "nonpayable",
      "type": "function"
    },
    {
      "inputs": [
        {
          "internalType": "address",
          "name": "_token",
          "type": "address"
        }
      ],
      "name": "getExchange",
      "outputs": [
        {
          "internalType": "address",
          "name": "",
          "type": "address"
        }
      ],
      "stateMutability": "view",
      "type": "function"
    }
  ],
  "bytecode": "0x608060405234801561001057600080fd5b50612e0b806100206000396000f3fe608060405234801561001057600080fd5b50600436106100365760003560e01c806306f2bf621461003b5780631648f38e1461006b575b600080fd5b61005560048036038101906100509190610232565b61009b565b604051610062919061026e565b60405180910390f35b61008560048036038101906100809190610232565b610103565b604051610092919061026e565b60405180910390f35b60008060008373ffffffffffffffffffffffffffffffffffffffff1673ffffffffffffffffffffffffffffffffffffffff16815260200190815260200160002060009054906101000a900473ffffffffffffffffffffffffffffffffffffffff169050919050565b60008082604051610113906101c2565b61011d919061026e565b604051809103906000f080158015610139573d6000803e3d6000fd5b509050806000808573ffffffffffffffffffffffffffffffffffffffff1673ffffffffffffffffffffffffffffffffffffffff16815260200190815260200160002060006101000a81548173ffffffffffffffffffffffffffffffffffffffff021916908373ffffffffffffffffffffffffffffffffffffffff16021790555080915050919050565b612b4c8061028a83390190565b600080fd5b600073ffffffffffffffffffffffffffffffffffffffff82169050919050565b60006101ff826101d4565b9050919050565b61020f816101f4565b811461021a57600080fd5b50565b60008135905061022c81610206565b92915050565b600060208284031215610248576102476101cf565b5b60006102568482850161021d565b91505092915050565b610268816101f4565b82525050565b6000602082019050610283600083018461025f565b9291505056fe60806040523480156200001157600080fd5b5060405162002b4c38038062002b4c83398181016040528101906200003791906200027a565b6040518060400160405280601081526020017f436872697320556e6973776170205632000000000000000000000000000000008152506040518060400160405280600881526020017f43485249532d56320000000000000000000000000000000000000000000000008152508160039080519060200190620000bb92919062000160565b508060049080519060200190620000d492919062000160565b50505080600560006101000a81548173ffffffffffffffffffffffffffffffffffffffff021916908373ffffffffffffffffffffffffffffffffffffffff16021790555033600660006101000a81548173ffffffffffffffffffffffffffffffffffffffff021916908373ffffffffffffffffffffffffffffffffffffffff1602179055505062000311565b8280546200016e90620002db565b90600052602060002090601f016020900481019282620001925760008555620001de565b82601f10620001ad57805160ff1916838001178555620001de565b82800160010185558215620001de579182015b82811115620001dd578251825591602001919060010190620001c0565b5b509050620001ed9190620001f1565b5090565b5b808211156200020c576000816000905550600101620001f2565b5090565b600080fd5b600073ffffffffffffffffffffffffffffffffffffffff82169050919050565b6000620002428262000215565b9050919050565b620002548162000235565b81146200026057600080fd5b50565b600081519050620002748162000249565b92915050565b60006020828403121562000293576200029262000210565b5b6000620002a38482850162000263565b91505092915050565b7f4e487b7100000000000000000000000000000000000000000000000000000000600052602260045260246000fd5b60006002820490506001821680620002f457607f821691505b602082108114156200030b576200030a620002ac565b5b50919050565b61282b80620003216000396000f3fe6080604052600436106101145760003560e01c8063533a7b73116100a0578063a457c2d711610064578063a457c2d7146103b0578063a9059cbb146103ed578063d3fdbbb51461042a578063dd62ed3e14610467578063f979dcd7146104a457610114565b8063533a7b73146102a55780635cf4ee91146102e257806370a082311461031f57806395d89b411461035c5780639c8f9f231461038757610114565b8063313ce567116100e7578063313ce567146101e95780633799098114610214578063389d9a4014610230578063395093511461024c57806351c6590a1461028957610114565b806306fdde0314610119578063095ea7b31461014457806318160ddd1461018157806323b872dd146101ac575b600080fd5b34801561012557600080fd5b5061012e6104c0565b60405161013b9190611a98565b60405180910390f35b34801561015057600080fd5b5061016b60048036038101906101669190611b53565b610552565b6040516101789190611bae565b60405180910390f35b34801561018d57600080fd5b50610196610575565b6040516101a39190611bd8565b60405180910390f35b3480156101b857600080fd5b506101d360048036038101906101ce9190611bf3565b61057f565b6040516101e09190611bae565b60405180910390f35b3480156101f557600080fd5b506101fe6105ae565b60405161020b9190611c62565b60405180910390f35b61022e60048036038101906102299190611c7d565b6105b7565b005b61024a60048036038101906102459190611ce4565b61088a565b005b34801561025857600080fd5b50610273600480360381019061026e9190611b53565b610898565b6040516102809190611bae565b60405180910390f35b6102a3600480360381019061029e9190611d24565b6108cf565b005b3480156102b157600080fd5b506102cc60048036038101906102c79190611d51565b610b78565b6040516102d99190611bd8565b60405180910390f35b3480156102ee57600080fd5b5061030960048036038101906103049190611da4565b610bce565b6040516103169190611bd8565b60405180910390f35b34801561032b57600080fd5b5061034660048036038101906103419190611de4565b610bef565b6040516103539190611bd8565b60405180910390f35b34801561036857600080fd5b50610371610c37565b60405161037e9190611a98565b60405180910390f35b34801561039357600080fd5b506103ae60048036038101906103a99190611d24565b610cc9565b005b3480156103bc57600080fd5b506103d760048036038101906103d29190611b53565b610ebc565b6040516103e49190611bae565b60405180910390f35b3480156103f957600080fd5b50610414600480360381019061040f9190611b53565b610f33565b6040516104219190611bae565b60405180910390f35b34801561043657600080fd5b50610451600480360381019061044c9190611d51565b610f56565b60405161045e9190611bd8565b60405180910390f35b34801561047357600080fd5b5061048e60048036038101906104899190611e11565b610f8e565b60405161049b9190611bd8565b60405180910390f35b6104be60048036038101906104b99190611d24565b611015565b005b6060600380546104cf90611e80565b80601f01602080910402602001604051908101604052809291908181526020018280546104fb90611e80565b80156105485780601f1061051d57610100808354040283529160200191610548565b820191906000526020600020905b81548152906001019060200180831161052b57829003601f168201915b5050505050905090565b60008061055d611022565b905061056a81858561102a565b600191505092915050565b6000600254905090565b60008061058a611022565b90506105978582856111f5565b6105a2858585611281565b60019150509392505050565b60006012905090565b6000600660009054906101000a900473ffffffffffffffffffffffffffffffffffffffff1673ffffffffffffffffffffffffffffffffffffffff166306f2bf62836040518263ffffffff1660e01b81526004016106149190611ec1565b60206040518083038186803b15801561062c57600080fd5b505afa158015610640573d6000803e3d6000fd5b505050506040513d601f19601f820116820180604052508101906106649190611ef1565b9050600061071d86600560009054906101000a900473ffffffffffffffffffffffffffffffffffffffff1673ffffffffffffffffffffffffffffffffffffffff166370a08231306040518263ffffffff1660e01b81526004016106c79190611ec1565b60206040518083038186803b1580156106df57600080fd5b505afa1580156106f3573d6000803e3d6000fd5b505050506040513d601f19601f820116820180604052508101906107179190611f33565b47610b78565b905080841115610762576040517f08c379a000000000000000000000000000000000000000000000000000000000815260040161075990611fac565b60405180910390fd5b600560009054906101000a900473ffffffffffffffffffffffffffffffffffffffff1673ffffffffffffffffffffffffffffffffffffffff166323b872dd3330896040518463ffffffff1660e01b81526004016107c193929190611fcc565b602060405180830381600087803b1580156107db57600080fd5b505af11580156107ef573d6000803e3d6000fd5b505050506040513d601f19601f82011682018060405250810190610813919061202f565b508173ffffffffffffffffffffffffffffffffffffffff1663389d9a408287336040518463ffffffff1660e01b815260040161085092919061205c565b6000604051808303818588803b15801561086957600080fd5b505af115801561087d573d6000803e3d6000fd5b5050505050505050505050565b6108948282611502565b5050565b6000806108a3611022565b90506108c48185856108b58589610f8e565b6108bf91906120b4565b61102a565b600191505092915050565b60006108d9610575565b90506000811115610aab57600034476108f2919061210a565b90506000600560009054906101000a900473ffffffffffffffffffffffffffffffffffffffff1673ffffffffffffffffffffffffffffffffffffffff166370a08231306040518263ffffffff1660e01b81526004016109519190611ec1565b60206040518083038186803b15801561096957600080fd5b505afa15801561097d573d6000803e3d6000fd5b505050506040513d601f19601f820116820180604052508101906109a19190611f33565b905060008282346109b2919061213e565b6109bc91906121c7565b9050808510156109cb57600080fd5b600560009054906101000a900473ffffffffffffffffffffffffffffffffffffffff1673ffffffffffffffffffffffffffffffffffffffff166323b872dd3330846040518463ffffffff1660e01b8152600401610a2a93929190611fcc565b602060405180830381600087803b158015610a4457600080fd5b505af1158015610a58573d6000803e3d6000fd5b505050506040513d601f19601f82011682018060405250810190610a7c919061202f565b506000833486610a8c919061213e565b610a9691906121c7565b9050610aa233826116be565b50505050610b74565b60008290506000479050610abf33826116be565b600560009054906101000a900473ffffffffffffffffffffffffffffffffffffffff1673ffffffffffffffffffffffffffffffffffffffff166323b872dd3330856040518463ffffffff1660e01b8152600401610b1e93929190611fcc565b602060405180830381600087803b158015610b3857600080fd5b505af1158015610b4c573d6000803e3d6000fd5b505050506040513d601f19601f82011682018060405250810190610b70919061202f565b5050505b5050565b600080606385610b88919061213e565b905060008186610b98919061213e565b9050600082606487610baa919061213e565b610bb491906120b4565b90508082610bc291906121c7565b93505050509392505050565b60008083905060008390508082610be591906121c7565b9250505092915050565b60008060008373ffffffffffffffffffffffffffffffffffffffff1673ffffffffffffffffffffffffffffffffffffffff168152602001908152602001600020549050919050565b606060048054610c4690611e80565b80601f0160208091040260200160405190810160405280929190818152602001828054610c7290611e80565b8015610cbf5780601f10610c9457610100808354040283529160200191610cbf565b820191906000526020600020905b815481529060010190602001808311610ca257829003601f168201915b5050505050905090565b6000610cd3610575565b90506000814784610ce4919061213e565b610cee91906121c7565b9050600082600560009054906101000a900473ffffffffffffffffffffffffffffffffffffffff1673ffffffffffffffffffffffffffffffffffffffff166370a08231306040518263ffffffff1660e01b8152600401610d4e9190611ec1565b60206040518083038186803b158015610d6657600080fd5b505afa158015610d7a573d6000803e3d6000fd5b505050506040513d601f19601f82011682018060405250810190610d9e9190611f33565b85610da9919061213e565b610db391906121c7565b9050610dbf338561181e565b3373ffffffffffffffffffffffffffffffffffffffff166108fc839081150290604051600060405180830381858888f19350505050158015610e05573d6000803e3d6000fd5b50600560009054906101000a900473ffffffffffffffffffffffffffffffffffffffff1673ffffffffffffffffffffffffffffffffffffffff1663a9059cbb33836040518363ffffffff1660e01b8152600401610e639291906121f8565b602060405180830381600087803b158015610e7d57600080fd5b505af1158015610e91573d6000803e3d6000fd5b505050506040513d601f19601f82011682018060405250810190610eb5919061202f565b5050505050565b600080610ec7611022565b90506000610ed58286610f8e565b905083811015610f1a576040517f08c379a0000000000000000000000000000000000000000000000000000000008152600401610f1190612293565b60405180910390fd5b610f27828686840361102a565b60019250505092915050565b600080610f3e611022565b9050610f4b818585611281565b600191505092915050565b6000808285610f65919061213e565b905060008585610f7591906120b4565b90508082610f8391906121c7565b925050509392505050565b6000600160008473ffffffffffffffffffffffffffffffffffffffff1673ffffffffffffffffffffffffffffffffffffffff16815260200190815260200160002060008373ffffffffffffffffffffffffffffffffffffffff1673ffffffffffffffffffffffffffffffffffffffff16815260200190815260200160002054905092915050565b61101f8133611502565b50565b600033905090565b600073ffffffffffffffffffffffffffffffffffffffff168373ffffffffffffffffffffffffffffffffffffffff16141561109a576040517f08c379a000000000000000000000000000000000000000000000000000000000815260040161109190612325565b60405180910390fd5b600073ffffffffffffffffffffffffffffffffffffffff168273ffffffffffffffffffffffffffffffffffffffff16141561110a576040517f08c379a0000000000000000000000000000000000000000000000000000000008152600401611101906123b7565b60405180910390fd5b80600160008573ffffffffffffffffffffffffffffffffffffffff1673ffffffffffffffffffffffffffffffffffffffff16815260200190815260200160002060008473ffffffffffffffffffffffffffffffffffffffff1673ffffffffffffffffffffffffffffffffffffffff168152602001908152602001600020819055508173ffffffffffffffffffffffffffffffffffffffff168373ffffffffffffffffffffffffffffffffffffffff167f8c5be1e5ebec7d5bd14f71427d1e84f3dd0314c0f7b2291e5b200ac8c7c3b925836040516111e89190611bd8565b60405180910390a3505050565b60006112018484610f8e565b90507fffffffffffffffffffffffffffffffffffffffffffffffffffffffffffffffff811461127b578181101561126d576040517f08c379a000000000000000000000000000000000000000000000000000000000815260040161126490612423565b60405180910390fd5b61127a848484840361102a565b5b50505050565b600073ffffffffffffffffffffffffffffffffffffffff168373ffffffffffffffffffffffffffffffffffffffff1614156112f1576040517f08c379a00000000000000000000000000000000000000000000000000000000081526004016112e8906124b5565b60405180910390fd5b600073ffffffffffffffffffffffffffffffffffffffff168273ffffffffffffffffffffffffffffffffffffffff161415611361576040517f08c379a000000000000000000000000000000000000000000000000000000000815260040161135890612547565b60405180910390fd5b61136c8383836119f5565b60008060008573ffffffffffffffffffffffffffffffffffffffff1673ffffffffffffffffffffffffffffffffffffffff168152602001908152602001600020549050818110156113f2576040517f08c379a00000000000000000000000000000000000000000000000000000000081526004016113e9906125d9565b60405180910390fd5b8181036000808673ffffffffffffffffffffffffffffffffffffffff1673ffffffffffffffffffffffffffffffffffffffff16815260200190815260200160002081905550816000808573ffffffffffffffffffffffffffffffffffffffff1673ffffffffffffffffffffffffffffffffffffffff168152602001908152602001600020600082825461148591906120b4565b925050819055508273ffffffffffffffffffffffffffffffffffffffff168473ffffffffffffffffffffffffffffffffffffffff167fddf252ad1be2c89b69c2b068fc378daa952ba7f163c4a11628f55a4df523b3ef846040516114e99190611bd8565b60405180910390a36114fc8484846119fa565b50505050565b60006115c4343447611514919061210a565b600560009054906101000a900473ffffffffffffffffffffffffffffffffffffffff1673ffffffffffffffffffffffffffffffffffffffff166370a08231306040518263ffffffff1660e01b815260040161156f9190611ec1565b60206040518083038186803b15801561158757600080fd5b505afa15801561159b573d6000803e3d6000fd5b505050506040513d601f19601f820116820180604052508101906115bf9190611f33565b610f56565b905082811015611609576040517f08c379a000000000000000000000000000000000000000000000000000000000815260040161160090612645565b60405180910390fd5b600560009054906101000a900473ffffffffffffffffffffffffffffffffffffffff1673ffffffffffffffffffffffffffffffffffffffff1663a9059cbb83836040518363ffffffff1660e01b81526004016116669291906121f8565b602060405180830381600087803b15801561168057600080fd5b505af1158015611694573d6000803e3d6000fd5b505050506040513d601f19601f820116820180604052508101906116b8919061202f565b50505050565b600073ffffffffffffffffffffffffffffffffffffffff168273ffffffffffffffffffffffffffffffffffffffff16141561172e576040517f08c379a0000000000000000000000000000000000000000000000000000000008152600401611725906126b1565b60405180910390fd5b61173a600083836119f5565b806002600082825461174c91906120b4565b92505081905550806000808473ffffffffffffffffffffffffffffffffffffffff1673ffffffffffffffffffffffffffffffffffffffff16815260200190815260200160002060008282546117a191906120b4565b925050819055508173ffffffffffffffffffffffffffffffffffffffff16600073ffffffffffffffffffffffffffffffffffffffff167fddf252ad1be2c89b69c2b068fc378daa952ba7f163c4a11628f55a4df523b3ef836040516118069190611bd8565b60405180910390a361181a600083836119fa565b5050565b600073ffffffffffffffffffffffffffffffffffffffff168273ffffffffffffffffffffffffffffffffffffffff16141561188e576040517f08c379a000000000000000000000000000000000000000000000000000000000815260040161188590612743565b60405180910390fd5b61189a826000836119f5565b60008060008473ffffffffffffffffffffffffffffffffffffffff1673ffffffffffffffffffffffffffffffffffffffff16815260200190815260200160002054905081811015611920576040517f08c379a0000000000000000000000000000000000000000000000000000000008152600401611917906127d5565b60405180910390fd5b8181036000808573ffffffffffffffffffffffffffffffffffffffff1673ffffffffffffffffffffffffffffffffffffffff168152602001908152602001600020819055508160026000828254611977919061210a565b92505081905550600073ffffffffffffffffffffffffffffffffffffffff168373ffffffffffffffffffffffffffffffffffffffff167fddf252ad1be2c89b69c2b068fc378daa952ba7f163c4a11628f55a4df523b3ef846040516119dc9190611bd8565b60405180910390a36119f0836000846119fa565b505050565b505050565b505050565b600081519050919050565b600082825260208201905092915050565b60005b83811015611a39578082015181840152602081019050611a1e565b83811115611a48576000848401525b50505050565b6000601f19601f8301169050919050565b6000611a6a826119ff565b611a748185611a0a565b9350611a84818560208601611a1b565b611a8d81611a4e565b840191505092915050565b60006020820190508181036000830152611ab28184611a5f565b905092915050565b600080fd5b600073ffffffffffffffffffffffffffffffffffffffff82169050919050565b6000611aea82611abf565b9050919050565b611afa81611adf565b8114611b0557600080fd5b50565b600081359050611b1781611af1565b92915050565b6000819050919050565b611b3081611b1d565b8114611b3b57600080fd5b50565b600081359050611b4d81611b27565b92915050565b60008060408385031215611b6a57611b69611aba565b5b6000611b7885828601611b08565b9250506020611b8985828601611b3e565b9150509250929050565b60008115159050919050565b611ba881611b93565b82525050565b6000602082019050611bc36000830184611b9f565b92915050565b611bd281611b1d565b82525050565b6000602082019050611bed6000830184611bc9565b92915050565b600080600060608486031215611c0c57611c0b611aba565b5b6000611c1a86828701611b08565b9350506020611c2b86828701611b08565b9250506040611c3c86828701611b3e565b9150509250925092565b600060ff82169050919050565b611c5c81611c46565b82525050565b6000602082019050611c776000830184611c53565b92915050565b60008060008060808587031215611c9757611c96611aba565b5b6000611ca587828801611b3e565b9450506020611cb687828801611b3e565b9350506040611cc787828801611b3e565b9250506060611cd887828801611b08565b91505092959194509250565b60008060408385031215611cfb57611cfa611aba565b5b6000611d0985828601611b3e565b9250506020611d1a85828601611b08565b9150509250929050565b600060208284031215611d3a57611d39611aba565b5b6000611d4884828501611b3e565b91505092915050565b600080600060608486031215611d6a57611d69611aba565b5b6000611d7886828701611b3e565b9350506020611d8986828701611b3e565b9250506040611d9a86828701611b3e565b9150509250925092565b60008060408385031215611dbb57611dba611aba565b5b6000611dc985828601611b3e565b9250506020611dda85828601611b3e565b9150509250929050565b600060208284031215611dfa57611df9611aba565b5b6000611e0884828501611b08565b91505092915050565b60008060408385031215611e2857611e27611aba565b5b6000611e3685828601611b08565b9250506020611e4785828601611b08565b9150509250929050565b7f4e487b7100000000000000000000000000000000000000000000000000000000600052602260045260246000fd5b60006002820490506001821680611e9857607f821691505b60208210811415611eac57611eab611e51565b5b50919050565b611ebb81611adf565b82525050565b6000602082019050611ed66000830184611eb2565b92915050565b600081519050611eeb81611af1565b92915050565b600060208284031215611f0757611f06611aba565b5b6000611f1584828501611edc565b91505092915050565b600081519050611f2d81611b27565b92915050565b600060208284031215611f4957611f48611aba565b5b6000611f5784828501611f1e565b91505092915050565b7f496e73756666696369656e7420657468206f757470757420616d6f756e740000600082015250565b6000611f96601e83611a0a565b9150611fa182611f60565b602082019050919050565b60006020820190508181036000830152611fc581611f89565b9050919050565b6000606082019050611fe16000830186611eb2565b611fee6020830185611eb2565b611ffb6040830184611bc9565b949350505050565b61200c81611b93565b811461201757600080fd5b50565b60008151905061202981612003565b92915050565b60006020828403121561204557612044611aba565b5b60006120538482850161201a565b91505092915050565b60006040820190506120716000830185611bc9565b61207e6020830184611eb2565b9392505050565b7f4e487b7100000000000000000000000000000000000000000000000000000000600052601160045260246000fd5b60006120bf82611b1d565b91506120ca83611b1d565b9250827fffffffffffffffffffffffffffffffffffffffffffffffffffffffffffffffff038211156120ff576120fe612085565b5b828201905092915050565b600061211582611b1d565b915061212083611b1d565b92508282101561213357612132612085565b5b828203905092915050565b600061214982611b1d565b915061215483611b1d565b9250817fffffffffffffffffffffffffffffffffffffffffffffffffffffffffffffffff048311821515161561218d5761218c612085565b5b828202905092915050565b7f4e487b7100000000000000000000000000000000000000000000000000000000600052601260045260246000fd5b60006121d282611b1d565b91506121dd83611b1d565b9250826121ed576121ec612198565b5b828204905092915050565b600060408201905061220d6000830185611eb2565b61221a6020830184611bc9565b9392505050565b7f45524332303a2064656372656173656420616c6c6f77616e63652062656c6f7760008201527f207a65726f000000000000000000000000000000000000000000000000000000602082015250565b600061227d602583611a0a565b915061228882612221565b604082019050919050565b600060208201905081810360008301526122ac81612270565b9050919050565b7f45524332303a20617070726f76652066726f6d20746865207a65726f2061646460008201527f7265737300000000000000000000000000000000000000000000000000000000602082015250565b600061230f602483611a0a565b915061231a826122b3565b604082019050919050565b6000602082019050818103600083015261233e81612302565b9050919050565b7f45524332303a20617070726f766520746f20746865207a65726f20616464726560008201527f7373000000000000000000000000000000000000000000000000000000000000602082015250565b60006123a1602283611a0a565b91506123ac82612345565b604082019050919050565b600060208201905081810360008301526123d081612394565b9050919050565b7f45524332303a20696e73756666696369656e7420616c6c6f77616e6365000000600082015250565b600061240d601d83611a0a565b9150612418826123d7565b602082019050919050565b6000602082019050818103600083015261243c81612400565b9050919050565b7f45524332303a207472616e736665722066726f6d20746865207a65726f20616460008201527f6472657373000000000000000000000000000000000000000000000000000000602082015250565b600061249f602583611a0a565b91506124aa82612443565b604082019050919050565b600060208201905081810360008301526124ce81612492565b9050919050565b7f45524332303a207472616e7366657220746f20746865207a65726f206164647260008201527f6573730000000000000000000000000000000000000000000000000000000000602082015250565b6000612531602383611a0a565b915061253c826124d5565b604082019050919050565b6000602082019050818103600083015261256081612524565b9050919050565b7f45524332303a207472616e7366657220616d6f756e742065786365656473206260008201527f616c616e63650000000000000000000000000000000000000000000000000000602082015250565b60006125c3602683611a0a565b91506125ce82612567565b604082019050919050565b600060208201905081810360008301526125f2816125b6565b9050919050565b7f496e73756666696369656e74206f7574707574416d6f756e7400000000000000600082015250565b600061262f601983611a0a565b915061263a826125f9565b602082019050919050565b6000602082019050818103600083015261265e81612622565b9050919050565b7f45524332303a206d696e7420746f20746865207a65726f206164647265737300600082015250565b600061269b601f83611a0a565b91506126a682612665565b602082019050919050565b600060208201905081810360008301526126ca8161268e565b9050919050565b7f45524332303a206275726e2066726f6d20746865207a65726f2061646472657360008201527f7300000000000000000000000000000000000000000000000000000000000000602082015250565b600061272d602183611a0a565b9150612738826126d1565b604082019050919050565b6000602082019050818103600083015261275c81612720565b9050919050565b7f45524332303a206275726e20616d6f756e7420657863656564732062616c616e60008201527f6365000000000000000000000000000000000000000000000000000000000000602082015250565b60006127bf602283611a0a565b91506127ca82612763565b604082019050919050565b600060208201905081810360008301526127ee816127b2565b905091905056fea2646970667358221220e74a48043a578594d93664213600804e6097bc7cf5fad3729f112fc3f84148ee64736f6c63430008090033a2646970667358221220704f1d6dedf6cac85d23c142708b8dd792bd09bdd6c46f5d7504e2a8ffaa337964736f6c63430008090033",
  "linkReferences": {},
  "deployedLinkReferences": {}
}