{
  "_format": "hh-sol-artifact-1",
  "contractName": "MasterChef",
  "sourceName": "contracts/MasterChef.sol",
  "abi": [
    {
      "inputs": [
        {
          "internalType": "contract GrayToken",
          "name": "_gray",
          "type": "address"
        },
        {
          "internalType": "address",
          "name": "_devaddr",
          "type": "address"
        },
        {
          "internalType": "uint256",
          "name": "_grayPerBlock",
          "type": "uint256"
        },
        {
          "internalType": "uint256",
          "name": "_startBlock",
          "type": "uint256"
        }
      ],
      "stateMutability": "nonpayable",
      "type": "constructor"
    },
    {
      "anonymous": false,
      "inputs": [
        {
          "indexed": true,
          "internalType": "address",
          "name": "user",
          "type": "address"
        },
        {
          "indexed": true,
          "internalType": "uint256",
          "name": "pid",
          "type": "uint256"
        },
        {
          "indexed": false,
          "internalType": "uint256",
          "name": "amount",
          "type": "uint256"
        }
      ],
      "name": "Deposit",
      "type": "event"
    },
    {
      "anonymous": false,
      "inputs": [
        {
          "indexed": true,
          "internalType": "address",
          "name": "user",
          "type": "address"
        },
        {
          "indexed": true,
          "internalType": "uint256",
          "name": "pid",
          "type": "uint256"
        },
        {
          "indexed": false,
          "internalType": "uint256",
          "name": "amount",
          "type": "uint256"
        }
      ],
      "name": "EmergencyWithdraw",
      "type": "event"
    },
    {
      "anonymous": false,
      "inputs": [
        {
          "indexed": true,
          "internalType": "address",
          "name": "previousOwner",
          "type": "address"
        },
        {
          "indexed": true,
          "internalType": "address",
          "name": "newOwner",
          "type": "address"
        }
      ],
      "name": "OwnershipTransferred",
      "type": "event"
    },
    {
      "anonymous": false,
      "inputs": [
        {
          "indexed": true,
          "internalType": "address",
          "name": "user",
          "type": "address"
        },
        {
          "indexed": true,
          "internalType": "uint256",
          "name": "pid",
          "type": "uint256"
        },
        {
          "indexed": false,
          "internalType": "uint256",
          "name": "amount",
          "type": "uint256"
        }
      ],
      "name": "Withdraw",
      "type": "event"
    },
    {
      "inputs": [
        {
          "internalType": "uint256",
          "name": "_allocPoint",
          "type": "uint256"
        },
        {
          "internalType": "contract IERC20",
          "name": "_lpToken",
          "type": "address"
        },
        {
          "internalType": "bool",
          "name": "_withUpdate",
          "type": "bool"
        }
      ],
      "name": "add",
      "outputs": [],
      "stateMutability": "nonpayable",
      "type": "function"
    },
    {
      "inputs": [
        {
          "internalType": "uint256",
          "name": "_pid",
          "type": "uint256"
        },
        {
          "internalType": "uint256",
          "name": "_amount",
          "type": "uint256"
        }
      ],
      "name": "deposit",
      "outputs": [],
      "stateMutability": "nonpayable",
      "type": "function"
    },
    {
      "inputs": [
        {
          "internalType": "address",
          "name": "_devaddr",
          "type": "address"
        }
      ],
      "name": "dev",
      "outputs": [],
      "stateMutability": "nonpayable",
      "type": "function"
    },
    {
      "inputs": [],
      "name": "devaddr",
      "outputs": [
        {
          "internalType": "address",
          "name": "",
          "type": "address"
        }
      ],
      "stateMutability": "view",
      "type": "function"
    },
    {
      "inputs": [
        {
          "internalType": "uint256",
          "name": "_pid",
          "type": "uint256"
        }
      ],
      "name": "emergencyWithdraw",
      "outputs": [],
      "stateMutability": "nonpayable",
      "type": "function"
    },
    {
      "inputs": [
        {
          "internalType": "uint256",
          "name": "_from",
          "type": "uint256"
        },
        {
          "internalType": "uint256",
          "name": "_to",
          "type": "uint256"
        }
      ],
      "name": "getMultiplier",
      "outputs": [
        {
          "internalType": "uint256",
          "name": "",
          "type": "uint256"
        }
      ],
      "stateMutability": "pure",
      "type": "function"
    },
    {
      "inputs": [],
      "name": "gray",
      "outputs": [
        {
          "internalType": "contract GrayToken",
          "name": "",
          "type": "address"
        }
      ],
      "stateMutability": "view",
      "type": "function"
    },
    {
      "inputs": [],
      "name": "grayPerBlock",
      "outputs": [
        {
          "internalType": "uint256",
          "name": "",
          "type": "uint256"
        }
      ],
      "stateMutability": "view",
      "type": "function"
    },
    {
      "inputs": [],
      "name": "massUpdatePools",
      "outputs": [],
      "stateMutability": "nonpayable",
      "type": "function"
    },
    {
      "inputs": [],
      "name": "owner",
      "outputs": [
        {
          "internalType": "address",
          "name": "",
          "type": "address"
        }
      ],
      "stateMutability": "view",
      "type": "function"
    },
    {
      "inputs": [
        {
          "internalType": "uint256",
          "name": "_pid",
          "type": "uint256"
        },
        {
          "internalType": "address",
          "name": "_user",
          "type": "address"
        }
      ],
      "name": "pendingGray",
      "outputs": [
        {
          "internalType": "uint256",
          "name": "",
          "type": "uint256"
        }
      ],
      "stateMutability": "view",
      "type": "function"
    },
    {
      "inputs": [
        {
          "internalType": "uint256",
          "name": "",
          "type": "uint256"
        }
      ],
      "name": "poolInfo",
      "outputs": [
        {
          "internalType": "contract IERC20",
          "name": "lpToken",
          "type": "address"
        },
        {
          "internalType": "uint256",
          "name": "allocPoint",
          "type": "uint256"
        },
        {
          "internalType": "uint256",
          "name": "lastRewardBlock",
          "type": "uint256"
        },
        {
          "internalType": "uint256",
          "name": "accGrayPerShare",
          "type": "uint256"
        }
      ],
      "stateMutability": "view",
      "type": "function"
    },
    {
      "inputs": [],
      "name": "poolLength",
      "outputs": [
        {
          "internalType": "uint256",
          "name": "",
          "type": "uint256"
        }
      ],
      "stateMutability": "view",
      "type": "function"
    },
    {
      "inputs": [],
      "name": "renounceOwnership",
      "outputs": [],
      "stateMutability": "nonpayable",
      "type": "function"
    },
    {
      "inputs": [
        {
          "internalType": "uint256",
          "name": "_pid",
          "type": "uint256"
        },
        {
          "internalType": "uint256",
          "name": "_allocPoint",
          "type": "uint256"
        },
        {
          "internalType": "bool",
          "name": "_withUpdate",
          "type": "bool"
        }
      ],
      "name": "set",
      "outputs": [],
      "stateMutability": "nonpayable",
      "type": "function"
    },
    {
      "inputs": [],
      "name": "startBlock",
      "outputs": [
        {
          "internalType": "uint256",
          "name": "",
          "type": "uint256"
        }
      ],
      "stateMutability": "view",
      "type": "function"
    },
    {
      "inputs": [],
      "name": "totalAllocPoint",
      "outputs": [
        {
          "internalType": "uint256",
          "name": "",
          "type": "uint256"
        }
      ],
      "stateMutability": "view",
      "type": "function"
    },
    {
      "inputs": [
        {
          "internalType": "address",
          "name": "newOwner",
          "type": "address"
        }
      ],
      "name": "transferOwnership",
      "outputs": [],
      "stateMutability": "nonpayable",
      "type": "function"
    },
    {
      "inputs": [
        {
          "internalType": "uint256",
          "name": "_pid",
          "type": "uint256"
        }
      ],
      "name": "updatePool",
      "outputs": [],
      "stateMutability": "nonpayable",
      "type": "function"
    },
    {
      "inputs": [
        {
          "internalType": "uint256",
          "name": "",
          "type": "uint256"
        },
        {
          "internalType": "address",
          "name": "",
          "type": "address"
        }
      ],
      "name": "userInfo",
      "outputs": [
        {
          "internalType": "uint256",
          "name": "amount",
          "type": "uint256"
        },
        {
          "internalType": "uint256",
          "name": "rewardDebt",
          "type": "uint256"
        }
      ],
      "stateMutability": "view",
      "type": "function"
    },
    {
      "inputs": [
        {
          "internalType": "uint256",
          "name": "_pid",
          "type": "uint256"
        },
        {
          "internalType": "uint256",
          "name": "_amount",
          "type": "uint256"
        }
      ],
      "name": "withdraw",
      "outputs": [],
      "stateMutability": "nonpayable",
      "type": "function"
    }
  ],
  "bytecode": "0x608060405260006006553480156200001657600080fd5b50604051620021e7380380620021e783398181016040528101906200003c9190620002ac565b6200005c62000050620000f660201b60201c565b620000fe60201b60201c565b83600160006101000a81548173ffffffffffffffffffffffffffffffffffffffff021916908373ffffffffffffffffffffffffffffffffffffffff16021790555082600260006101000a81548173ffffffffffffffffffffffffffffffffffffffff021916908373ffffffffffffffffffffffffffffffffffffffff1602179055508160038190555080600781905550505050506200031e565b600033905090565b60008060009054906101000a900473ffffffffffffffffffffffffffffffffffffffff169050816000806101000a81548173ffffffffffffffffffffffffffffffffffffffff021916908373ffffffffffffffffffffffffffffffffffffffff1602179055508173ffffffffffffffffffffffffffffffffffffffff168173ffffffffffffffffffffffffffffffffffffffff167f8be0079c531659141344cd1fd0a4f28419497f9722a3daafe3b4186f6b6457e060405160405180910390a35050565b600080fd5b600073ffffffffffffffffffffffffffffffffffffffff82169050919050565b6000620001f482620001c7565b9050919050565b60006200020882620001e7565b9050919050565b6200021a81620001fb565b81146200022657600080fd5b50565b6000815190506200023a816200020f565b92915050565b6200024b81620001e7565b81146200025757600080fd5b50565b6000815190506200026b8162000240565b92915050565b6000819050919050565b620002868162000271565b81146200029257600080fd5b50565b600081519050620002a6816200027b565b92915050565b60008060008060808587031215620002c957620002c8620001c2565b5b6000620002d98782880162000229565b9450506020620002ec878288016200025a565b9350506040620002ff8782880162000295565b9250506060620003128782880162000295565b91505092959194509250565b611eb9806200032e6000396000f3fe608060405234801561001057600080fd5b50600436106101375760003560e01c8063715018a6116100b85780638f917d0f1161007c5780638f917d0f146102f157806393f1a40b1461030f578063d49e77cd14610340578063e2bbb1581461035e578063ea4c726d1461037a578063f2fde38b146103aa57610137565b8063715018a61461025f57806386d70678146102695780638d88a90e146102875780638da5cb5b146102a35780638dbb1e3a146102c157610137565b806348cd4cb1116100ff57806348cd4cb1146101e357806351eb05a6146102015780635312ea8e1461021d578063630b5ba11461023957806364482f791461024357610137565b8063081e3eda1461013c5780631526fe271461015a57806317caf6f11461018d5780631eaaa045146101ab578063441a3e70146101c7575b600080fd5b6101446103c6565b60405161015191906115fa565b60405180910390f35b610174600480360381019061016f9190611646565b6103d3565b60405161018494939291906116f2565b60405180910390f35b610195610433565b6040516101a291906115fa565b60405180910390f35b6101c560048036038101906101c091906117bf565b610439565b005b6101e160048036038101906101dc9190611812565b61054b565b005b6101eb61085c565b6040516101f891906115fa565b60405180910390f35b61021b60048036038101906102169190611646565b610862565b005b61023760048036038101906102329190611646565b610b33565b005b610241610ccf565b005b61025d60048036038101906102589190611852565b610d02565b005b610267610d9a565b005b610271610dae565b60405161027e91906118c6565b60405180910390f35b6102a1600480360381019061029c919061190d565b610dd4565b005b6102ab610ea8565b6040516102b89190611949565b60405180910390f35b6102db60048036038101906102d69190611812565b610ed1565b6040516102e891906115fa565b60405180910390f35b6102f9610ee7565b60405161030691906115fa565b60405180910390f35b61032960048036038101906103249190611964565b610eed565b6040516103379291906119a4565b60405180910390f35b610348610f1e565b6040516103559190611949565b60405180910390f35b61037860048036038101906103739190611812565b610f44565b005b610394600480360381019061038f9190611964565b61121e565b6040516103a191906115fa565b60405180910390f35b6103c460048036038101906103bf919061190d565b611413565b005b6000600480549050905090565b600481815481106103e357600080fd5b90600052602060002090600402016000915090508060000160009054906101000a900473ffffffffffffffffffffffffffffffffffffffff16908060010154908060020154908060030154905084565b60065481565b610441611497565b80156104505761044f610ccf565b5b6000600754431161046357600754610465565b435b90508360065461047591906119fc565b600681905550600460405180608001604052808573ffffffffffffffffffffffffffffffffffffffff1681526020018681526020018381526020016000815250908060018154018082558091505060019003906000526020600020906004020160009091909190915060008201518160000160006101000a81548173ffffffffffffffffffffffffffffffffffffffff021916908373ffffffffffffffffffffffffffffffffffffffff160217905550602082015181600101556040820151816002015560608201518160030155505050505050565b60006004838154811061056157610560611a52565b5b9060005260206000209060040201905060006005600085815260200190815260200160002060003373ffffffffffffffffffffffffffffffffffffffff1673ffffffffffffffffffffffffffffffffffffffff1681526020019081526020016000209050828160000154101561060c576040517f08c379a000000000000000000000000000000000000000000000000000000000815260040161060390611ade565b60405180910390fd5b61061584610862565b6000816001015464e8d4a51000846003015484600001546106369190611afe565b6106409190611b87565b61064a9190611bb8565b9050600081111561070657600160009054906101000a900473ffffffffffffffffffffffffffffffffffffffff1673ffffffffffffffffffffffffffffffffffffffff1663a9059cbb33836040518363ffffffff1660e01b81526004016106b2929190611bec565b602060405180830381600087803b1580156106cc57600080fd5b505af11580156106e0573d6000803e3d6000fd5b505050506040513d601f19601f820116820180604052508101906107049190611c2a565b505b60008411156107da5783826000015461071f9190611bb8565b82600001819055508260000160009054906101000a900473ffffffffffffffffffffffffffffffffffffffff1673ffffffffffffffffffffffffffffffffffffffff1663a9059cbb33866040518363ffffffff1660e01b8152600401610786929190611bec565b602060405180830381600087803b1580156107a057600080fd5b505af11580156107b4573d6000803e3d6000fd5b505050506040513d601f19601f820116820180604052508101906107d89190611c2a565b505b64e8d4a51000836003015483600001546107f49190611afe565b6107fe9190611b87565b8260010181905550843373ffffffffffffffffffffffffffffffffffffffff167ff279e6a1f5e320cca91135676d9cb6e44ca8a08c0b88342bcdb1144f6511b5688660405161084d91906115fa565b60405180910390a35050505050565b60075481565b60006004828154811061087857610877611a52565b5b90600052602060002090600402019050806002015443116108995750610b30565b60008160000160009054906101000a900473ffffffffffffffffffffffffffffffffffffffff1673ffffffffffffffffffffffffffffffffffffffff166370a08231306040518263ffffffff1660e01b81526004016108f89190611949565b60206040518083038186803b15801561091057600080fd5b505afa158015610924573d6000803e3d6000fd5b505050506040513d601f19601f820116820180604052508101906109489190611c6c565b90506000811415610963574382600201819055505050610b30565b6000610973836002015443610ed1565b9050600060065484600101546003548461098d9190611afe565b6109979190611afe565b6109a19190611b87565b9050600160009054906101000a900473ffffffffffffffffffffffffffffffffffffffff1673ffffffffffffffffffffffffffffffffffffffff166340c10f19600260009054906101000a900473ffffffffffffffffffffffffffffffffffffffff16600a84610a119190611b87565b6040518363ffffffff1660e01b8152600401610a2e929190611bec565b600060405180830381600087803b158015610a4857600080fd5b505af1158015610a5c573d6000803e3d6000fd5b50505050600160009054906101000a900473ffffffffffffffffffffffffffffffffffffffff1673ffffffffffffffffffffffffffffffffffffffff166340c10f1930836040518363ffffffff1660e01b8152600401610abd929190611bec565b600060405180830381600087803b158015610ad757600080fd5b505af1158015610aeb573d6000803e3d6000fd5b505050508264e8d4a5100082610b019190611afe565b610b0b9190611b87565b8460030154610b1a91906119fc565b8460030181905550438460020181905550505050505b50565b600060048281548110610b4957610b48611a52565b5b9060005260206000209060040201905060006005600084815260200190815260200160002060003373ffffffffffffffffffffffffffffffffffffffff1673ffffffffffffffffffffffffffffffffffffffff16815260200190815260200160002090508160000160009054906101000a900473ffffffffffffffffffffffffffffffffffffffff1673ffffffffffffffffffffffffffffffffffffffff1663a9059cbb3383600001546040518363ffffffff1660e01b8152600401610c10929190611bec565b602060405180830381600087803b158015610c2a57600080fd5b505af1158015610c3e573d6000803e3d6000fd5b505050506040513d601f19601f82011682018060405250810190610c629190611c2a565b50823373ffffffffffffffffffffffffffffffffffffffff167fbb757047c2b5f3974fe26b7c10f732e7bce710b0952a71082702781e62ae05958360000154604051610cae91906115fa565b60405180910390a36000816000018190555060008160010181905550505050565b6000600480549050905060005b81811015610cfe57610ced81610862565b80610cf790611c99565b9050610cdc565b5050565b610d0a611497565b8015610d1957610d18610ccf565b5b600060048481548110610d2f57610d2e611a52565b5b90600052602060002090600402016001015490508260048581548110610d5857610d57611a52565b5b906000526020600020906004020160010181905550828114610d94578281600654610d839190611bb8565b610d8d91906119fc565b6006819055505b50505050565b610da2611497565b610dac6000611515565b565b600160009054906101000a900473ffffffffffffffffffffffffffffffffffffffff1681565b600260009054906101000a900473ffffffffffffffffffffffffffffffffffffffff1673ffffffffffffffffffffffffffffffffffffffff163373ffffffffffffffffffffffffffffffffffffffff1614610e64576040517f08c379a0000000000000000000000000000000000000000000000000000000008152600401610e5b90611d2e565b60405180910390fd5b80600260006101000a81548173ffffffffffffffffffffffffffffffffffffffff021916908373ffffffffffffffffffffffffffffffffffffffff16021790555050565b60008060009054906101000a900473ffffffffffffffffffffffffffffffffffffffff16905090565b60008282610edf9190611bb8565b905092915050565b60035481565b6005602052816000526040600020602052806000526040600020600091509150508060000154908060010154905082565b600260009054906101000a900473ffffffffffffffffffffffffffffffffffffffff1681565b600060048381548110610f5a57610f59611a52565b5b9060005260206000209060040201905060006005600085815260200190815260200160002060003373ffffffffffffffffffffffffffffffffffffffff1673ffffffffffffffffffffffffffffffffffffffff1681526020019081526020016000209050610fc784610862565b6000816000015411156110c7576000816001015464e8d4a5100084600301548460000154610ff59190611afe565b610fff9190611b87565b6110099190611bb8565b905060008111156110c557600160009054906101000a900473ffffffffffffffffffffffffffffffffffffffff1673ffffffffffffffffffffffffffffffffffffffff1663a9059cbb33836040518363ffffffff1660e01b8152600401611071929190611bec565b602060405180830381600087803b15801561108b57600080fd5b505af115801561109f573d6000803e3d6000fd5b505050506040513d601f19601f820116820180604052508101906110c39190611c2a565b505b505b600083111561119d578160000160009054906101000a900473ffffffffffffffffffffffffffffffffffffffff1673ffffffffffffffffffffffffffffffffffffffff166323b872dd3330866040518463ffffffff1660e01b815260040161113193929190611d4e565b602060405180830381600087803b15801561114b57600080fd5b505af115801561115f573d6000803e3d6000fd5b505050506040513d601f19601f820116820180604052508101906111839190611c2a565b5082816000015461119491906119fc565b81600001819055505b64e8d4a51000826003015482600001546111b79190611afe565b6111c19190611b87565b8160010181905550833373ffffffffffffffffffffffffffffffffffffffff167f90890809c654f11d6e72a28fa60149770a0d11ec6c92319d6ceb2bb0a4ea1a158560405161121091906115fa565b60405180910390a350505050565b6000806004848154811061123557611234611a52565b5b9060005260206000209060040201905060006005600086815260200190815260200160002060008573ffffffffffffffffffffffffffffffffffffffff1673ffffffffffffffffffffffffffffffffffffffff168152602001908152602001600020905060008260030154905060008360000160009054906101000a900473ffffffffffffffffffffffffffffffffffffffff1673ffffffffffffffffffffffffffffffffffffffff166370a08231306040518263ffffffff1660e01b81526004016113019190611949565b60206040518083038186803b15801561131957600080fd5b505afa15801561132d573d6000803e3d6000fd5b505050506040513d601f19601f820116820180604052508101906113519190611c6c565b9050836002015443118015611367575060008114155b156113d857600061137c856002015443610ed1565b905060006006548660010154600354846113969190611afe565b6113a09190611afe565b6113aa9190611b87565b90508264e8d4a51000826113be9190611afe565b6113c89190611b87565b846113d391906119fc565b935050505b826001015464e8d4a510008385600001546113f39190611afe565b6113fd9190611b87565b6114079190611bb8565b94505050505092915050565b61141b611497565b600073ffffffffffffffffffffffffffffffffffffffff168173ffffffffffffffffffffffffffffffffffffffff16141561148b576040517f08c379a000000000000000000000000000000000000000000000000000000000815260040161148290611df7565b60405180910390fd5b61149481611515565b50565b61149f6115d9565b73ffffffffffffffffffffffffffffffffffffffff166114bd610ea8565b73ffffffffffffffffffffffffffffffffffffffff1614611513576040517f08c379a000000000000000000000000000000000000000000000000000000000815260040161150a90611e63565b60405180910390fd5b565b60008060009054906101000a900473ffffffffffffffffffffffffffffffffffffffff169050816000806101000a81548173ffffffffffffffffffffffffffffffffffffffff021916908373ffffffffffffffffffffffffffffffffffffffff1602179055508173ffffffffffffffffffffffffffffffffffffffff168173ffffffffffffffffffffffffffffffffffffffff167f8be0079c531659141344cd1fd0a4f28419497f9722a3daafe3b4186f6b6457e060405160405180910390a35050565b600033905090565b6000819050919050565b6115f4816115e1565b82525050565b600060208201905061160f60008301846115eb565b92915050565b600080fd5b611623816115e1565b811461162e57600080fd5b50565b6000813590506116408161161a565b92915050565b60006020828403121561165c5761165b611615565b5b600061166a84828501611631565b91505092915050565b600073ffffffffffffffffffffffffffffffffffffffff82169050919050565b6000819050919050565b60006116b86116b36116ae84611673565b611693565b611673565b9050919050565b60006116ca8261169d565b9050919050565b60006116dc826116bf565b9050919050565b6116ec816116d1565b82525050565b600060808201905061170760008301876116e3565b61171460208301866115eb565b61172160408301856115eb565b61172e60608301846115eb565b95945050505050565b600061174282611673565b9050919050565b600061175482611737565b9050919050565b61176481611749565b811461176f57600080fd5b50565b6000813590506117818161175b565b92915050565b60008115159050919050565b61179c81611787565b81146117a757600080fd5b50565b6000813590506117b981611793565b92915050565b6000806000606084860312156117d8576117d7611615565b5b60006117e686828701611631565b93505060206117f786828701611772565b9250506040611808868287016117aa565b9150509250925092565b6000806040838503121561182957611828611615565b5b600061183785828601611631565b925050602061184885828601611631565b9150509250929050565b60008060006060848603121561186b5761186a611615565b5b600061187986828701611631565b935050602061188a86828701611631565b925050604061189b868287016117aa565b9150509250925092565b60006118b0826116bf565b9050919050565b6118c0816118a5565b82525050565b60006020820190506118db60008301846118b7565b92915050565b6118ea81611737565b81146118f557600080fd5b50565b600081359050611907816118e1565b92915050565b60006020828403121561192357611922611615565b5b6000611931848285016118f8565b91505092915050565b61194381611737565b82525050565b600060208201905061195e600083018461193a565b92915050565b6000806040838503121561197b5761197a611615565b5b600061198985828601611631565b925050602061199a858286016118f8565b9150509250929050565b60006040820190506119b960008301856115eb565b6119c660208301846115eb565b9392505050565b7f4e487b7100000000000000000000000000000000000000000000000000000000600052601160045260246000fd5b6000611a07826115e1565b9150611a12836115e1565b9250827fffffffffffffffffffffffffffffffffffffffffffffffffffffffffffffffff03821115611a4757611a466119cd565b5b828201905092915050565b7f4e487b7100000000000000000000000000000000000000000000000000000000600052603260045260246000fd5b600082825260208201905092915050565b7f77697468647261773a206e6f7420676f6f640000000000000000000000000000600082015250565b6000611ac8601283611a81565b9150611ad382611a92565b602082019050919050565b60006020820190508181036000830152611af781611abb565b9050919050565b6000611b09826115e1565b9150611b14836115e1565b9250817fffffffffffffffffffffffffffffffffffffffffffffffffffffffffffffffff0483118215151615611b4d57611b4c6119cd565b5b828202905092915050565b7f4e487b7100000000000000000000000000000000000000000000000000000000600052601260045260246000fd5b6000611b92826115e1565b9150611b9d836115e1565b925082611bad57611bac611b58565b5b828204905092915050565b6000611bc3826115e1565b9150611bce836115e1565b925082821015611be157611be06119cd565b5b828203905092915050565b6000604082019050611c01600083018561193a565b611c0e60208301846115eb565b9392505050565b600081519050611c2481611793565b92915050565b600060208284031215611c4057611c3f611615565b5b6000611c4e84828501611c15565b91505092915050565b600081519050611c668161161a565b92915050565b600060208284031215611c8257611c81611615565b5b6000611c9084828501611c57565b91505092915050565b6000611ca4826115e1565b91507fffffffffffffffffffffffffffffffffffffffffffffffffffffffffffffffff821415611cd757611cd66119cd565b5b600182019050919050565b7f6465763a207775743f0000000000000000000000000000000000000000000000600082015250565b6000611d18600983611a81565b9150611d2382611ce2565b602082019050919050565b60006020820190508181036000830152611d4781611d0b565b9050919050565b6000606082019050611d63600083018661193a565b611d70602083018561193a565b611d7d60408301846115eb565b949350505050565b7f4f776e61626c653a206e6577206f776e657220697320746865207a65726f206160008201527f6464726573730000000000000000000000000000000000000000000000000000602082015250565b6000611de1602683611a81565b9150611dec82611d85565b604082019050919050565b60006020820190508181036000830152611e1081611dd4565b9050919050565b7f4f776e61626c653a2063616c6c6572206973206e6f7420746865206f776e6572600082015250565b6000611e4d602083611a81565b9150611e5882611e17565b602082019050919050565b60006020820190508181036000830152611e7c81611e40565b905091905056fea2646970667358221220fbea59722f79dbbdff47a7dfbc1f6538e6e379c6f08d12d3fd3bc1ff2cc53bfb64736f6c63430008090033",
  "linkReferences": {},
  "deployedLinkReferences": {}
}